{
  "contractName": "DappVotes",
  "abi": [
    {
      "anonymous": false,
      "inputs": [
        {
          "indexed": true,
          "internalType": "address",
          "name": "voter",
          "type": "address"
        },
        {
          "indexed": false,
          "internalType": "uint256",
          "name": "timestamp",
          "type": "uint256"
        }
      ],
      "name": "Voted",
      "type": "event"
    },
    {
      "inputs": [
        {
          "internalType": "string",
          "name": "image",
          "type": "string"
        },
        {
          "internalType": "string",
          "name": "title",
          "type": "string"
        },
        {
          "internalType": "string",
          "name": "description",
          "type": "string"
        },
        {
          "internalType": "uint256",
          "name": "startsAt",
          "type": "uint256"
        },
        {
          "internalType": "uint256",
          "name": "endsAt",
          "type": "uint256"
        }
      ],
      "name": "createPoll",
      "outputs": [],
      "stateMutability": "nonpayable",
      "type": "function"
    },
    {
      "inputs": [
        {
          "internalType": "uint256",
          "name": "id",
          "type": "uint256"
        },
        {
          "internalType": "string",
          "name": "image",
          "type": "string"
        },
        {
          "internalType": "string",
          "name": "title",
          "type": "string"
        },
        {
          "internalType": "string",
          "name": "description",
          "type": "string"
        },
        {
          "internalType": "uint256",
          "name": "startsAt",
          "type": "uint256"
        },
        {
          "internalType": "uint256",
          "name": "endsAt",
          "type": "uint256"
        }
      ],
      "name": "updatePoll",
      "outputs": [],
      "stateMutability": "nonpayable",
      "type": "function"
    },
    {
      "inputs": [
        {
          "internalType": "uint256",
          "name": "id",
          "type": "uint256"
        }
      ],
      "name": "deletePoll",
      "outputs": [],
      "stateMutability": "nonpayable",
      "type": "function"
    },
    {
      "inputs": [
        {
          "internalType": "uint256",
          "name": "id",
          "type": "uint256"
        }
      ],
      "name": "getPoll",
      "outputs": [
        {
          "components": [
            {
              "internalType": "uint256",
              "name": "id",
              "type": "uint256"
            },
            {
              "internalType": "string",
              "name": "image",
              "type": "string"
            },
            {
              "internalType": "string",
              "name": "title",
              "type": "string"
            },
            {
              "internalType": "string",
              "name": "description",
              "type": "string"
            },
            {
              "internalType": "uint256",
              "name": "votes",
              "type": "uint256"
            },
            {
              "internalType": "uint256",
              "name": "contestants",
              "type": "uint256"
            },
            {
              "internalType": "bool",
              "name": "deleted",
              "type": "bool"
            },
            {
              "internalType": "address",
              "name": "director",
              "type": "address"
            },
            {
              "internalType": "uint256",
              "name": "startsAt",
              "type": "uint256"
            },
            {
              "internalType": "uint256",
              "name": "endsAt",
              "type": "uint256"
            },
            {
              "internalType": "uint256",
              "name": "timestamp",
              "type": "uint256"
            },
            {
              "internalType": "address[]",
              "name": "voters",
              "type": "address[]"
            },
            {
              "internalType": "string[]",
              "name": "avatars",
              "type": "string[]"
            }
          ],
          "internalType": "struct DappVotes.PollStruct",
          "name": "",
          "type": "tuple"
        }
      ],
      "stateMutability": "view",
      "type": "function",
      "constant": true
    },
    {
      "inputs": [],
      "name": "getPolls",
      "outputs": [
        {
          "components": [
            {
              "internalType": "uint256",
              "name": "id",
              "type": "uint256"
            },
            {
              "internalType": "string",
              "name": "image",
              "type": "string"
            },
            {
              "internalType": "string",
              "name": "title",
              "type": "string"
            },
            {
              "internalType": "string",
              "name": "description",
              "type": "string"
            },
            {
              "internalType": "uint256",
              "name": "votes",
              "type": "uint256"
            },
            {
              "internalType": "uint256",
              "name": "contestants",
              "type": "uint256"
            },
            {
              "internalType": "bool",
              "name": "deleted",
              "type": "bool"
            },
            {
              "internalType": "address",
              "name": "director",
              "type": "address"
            },
            {
              "internalType": "uint256",
              "name": "startsAt",
              "type": "uint256"
            },
            {
              "internalType": "uint256",
              "name": "endsAt",
              "type": "uint256"
            },
            {
              "internalType": "uint256",
              "name": "timestamp",
              "type": "uint256"
            },
            {
              "internalType": "address[]",
              "name": "voters",
              "type": "address[]"
            },
            {
              "internalType": "string[]",
              "name": "avatars",
              "type": "string[]"
            }
          ],
          "internalType": "struct DappVotes.PollStruct[]",
          "name": "Polls",
          "type": "tuple[]"
        }
      ],
      "stateMutability": "view",
      "type": "function",
      "constant": true
    },
    {
      "inputs": [
        {
          "internalType": "uint256",
          "name": "id",
          "type": "uint256"
        },
        {
          "internalType": "string",
          "name": "name",
          "type": "string"
        },
        {
          "internalType": "string",
          "name": "image",
          "type": "string"
        }
      ],
      "name": "contest",
      "outputs": [],
      "stateMutability": "nonpayable",
      "type": "function"
    },
    {
      "inputs": [
        {
          "internalType": "uint256",
          "name": "id",
          "type": "uint256"
        },
        {
          "internalType": "uint256",
          "name": "cid",
          "type": "uint256"
        }
      ],
      "name": "getContestant",
      "outputs": [
        {
          "components": [
            {
              "internalType": "uint256",
              "name": "id",
              "type": "uint256"
            },
            {
              "internalType": "string",
              "name": "image",
              "type": "string"
            },
            {
              "internalType": "string",
              "name": "name",
              "type": "string"
            },
            {
              "internalType": "address",
              "name": "voter",
              "type": "address"
            },
            {
              "internalType": "uint256",
              "name": "votes",
              "type": "uint256"
            },
            {
              "internalType": "address[]",
              "name": "voters",
              "type": "address[]"
            }
          ],
          "internalType": "struct DappVotes.ContestantStruct",
          "name": "",
          "type": "tuple"
        }
      ],
      "stateMutability": "view",
      "type": "function",
      "constant": true
    },
    {
      "inputs": [
        {
          "internalType": "uint256",
          "name": "id",
          "type": "uint256"
        }
      ],
      "name": "getContestants",
      "outputs": [
        {
          "components": [
            {
              "internalType": "uint256",
              "name": "id",
              "type": "uint256"
            },
            {
              "internalType": "string",
              "name": "image",
              "type": "string"
            },
            {
              "internalType": "string",
              "name": "name",
              "type": "string"
            },
            {
              "internalType": "address",
              "name": "voter",
              "type": "address"
            },
            {
              "internalType": "uint256",
              "name": "votes",
              "type": "uint256"
            },
            {
              "internalType": "address[]",
              "name": "voters",
              "type": "address[]"
            }
          ],
          "internalType": "struct DappVotes.ContestantStruct[]",
          "name": "Contestants",
          "type": "tuple[]"
        }
      ],
      "stateMutability": "view",
      "type": "function",
      "constant": true
    },
    {
      "inputs": [
        {
          "internalType": "uint256",
          "name": "id",
          "type": "uint256"
        },
        {
          "internalType": "uint256",
          "name": "cid",
          "type": "uint256"
        }
      ],
      "name": "vote",
      "outputs": [],
      "stateMutability": "nonpayable",
      "type": "function"
    }
  ],
  "bytecode": "0x608060405234801561001057600080fd5b506139ae806100206000396000f3fe608060405234801561001057600080fd5b50600436106100935760003560e01c806366dd51dc1161006657806366dd51dc1461011e578063b384abef1461013a578063cee9dc4514610156578063d343641114610186578063f0d0bc45146101b657610093565b8063029433f014610098578063120fe89b146100b45780631a8cbcaa146100d25780631f35b51d14610102575b600080fd5b6100b260048036038101906100ad9190612782565b6101d2565b005b6100bc610560565b6040516100c9919061331b565b60405180910390f35b6100ec60048036038101906100e791906126da565b610ad4565b6040516100f9919061355f565b60405180910390f35b61011c600480360381019061011791906126da565b610ecc565b005b61013860048036038101906101339190612703565b61105b565b005b610154600480360381019061014f9190612853565b611472565b005b610170600480360381019061016b91906126da565b6118df565b60405161017d91906132f9565b60405180910390f35b6101a0600480360381019061019b9190612853565b611cc5565b6040516101ad919061353d565b60405180910390f35b6101d060048036038101906101cb919061261b565b611f20565b005b6002600087815260200190815260200160002060009054906101000a900460ff16610232576040517f08c379a0000000000000000000000000000000000000000000000000000000008152600401610229906133fd565b60405180910390fd5b3373ffffffffffffffffffffffffffffffffffffffff166003600088815260200190815260200160002060060160019054906101000a900473ffffffffffffffffffffffffffffffffffffffff1673ffffffffffffffffffffffffffffffffffffffff16146102d6576040517f08c379a00000000000000000000000000000000000000000000000000000000081526004016102cd9061347d565b60405180910390fd5b600084511161031a576040517f08c379a0000000000000000000000000000000000000000000000000000000008152600401610311906133bd565b60405180910390fd5b600083511161035e576040517f08c379a00000000000000000000000000000000000000000000000000000000081526004016103559061337d565b60405180910390fd5b60008551116103a2576040517f08c379a00000000000000000000000000000000000000000000000000000000081526004016103999061349d565b60405180910390fd5b6003600087815260200190815260200160002060060160009054906101000a900460ff1615610406576040517f08c379a00000000000000000000000000000000000000000000000000000000081526004016103fd906134bd565b60405180910390fd5b600160036000888152602001908152602001600020600401541061045f576040517f08c379a00000000000000000000000000000000000000000000000000000000081526004016104569061345d565b60405180910390fd5b8181116104a1576040517f08c379a0000000000000000000000000000000000000000000000000000000008152600401610498906134dd565b60405180910390fd5b836003600088815260200190815260200160002060020190805190602001906104cb9291906122e1565b50826003600088815260200190815260200160002060030190805190602001906104f69291906122e1565b50816003600088815260200190815260200160002060070181905550806003600088815260200190815260200160002060080181905550846003600088815260200190815260200160002060010190805190602001906105579291906122e1565b50505050505050565b6060600080600190505b610574600061229d565b81116105c4576003600082815260200190815260200160002060060160009054906101000a900460ff166105b15781806105ad9061387a565b9250505b80806105bc9061387a565b91505061056a565b508067ffffffffffffffff811115610605577f4e487b7100000000000000000000000000000000000000000000000000000000600052604160045260246000fd5b60405190808252806020026020018201604052801561063e57816020015b61062b612367565b8152602001906001900390816106235790505b509150600080600190505b610653600061229d565b8111610ace576003600082815260200190815260200160002060060160009054906101000a900460ff16610abb5760036000828152602001908152602001600020604051806101a0016040529081600082015481526020016001820180546106ba90613848565b80601f01602080910402602001604051908101604052809291908181526020018280546106e690613848565b80156107335780601f1061070857610100808354040283529160200191610733565b820191906000526020600020905b81548152906001019060200180831161071657829003601f168201915b5050505050815260200160028201805461074c90613848565b80601f016020809104026020016040519081016040528092919081815260200182805461077890613848565b80156107c55780601f1061079a576101008083540402835291602001916107c5565b820191906000526020600020905b8154815290600101906020018083116107a857829003601f168201915b505050505081526020016003820180546107de90613848565b80601f016020809104026020016040519081016040528092919081815260200182805461080a90613848565b80156108575780601f1061082c57610100808354040283529160200191610857565b820191906000526020600020905b81548152906001019060200180831161083a57829003601f168201915b5050505050815260200160048201548152602001600582015481526020016006820160009054906101000a900460ff161515151581526020016006820160019054906101000a900473ffffffffffffffffffffffffffffffffffffffff1673ffffffffffffffffffffffffffffffffffffffff1673ffffffffffffffffffffffffffffffffffffffff168152602001600782015481526020016008820154815260200160098201548152602001600a820180548060200260200160405190810160405280929190818152602001828054801561098857602002820191906000526020600020905b8160009054906101000a900473ffffffffffffffffffffffffffffffffffffffff1673ffffffffffffffffffffffffffffffffffffffff168152602001906001019080831161093e575b50505050508152602001600b8201805480602002602001604051908101604052809291908181526020016000905b82821015610a625783829060005260206000200180546109d590613848565b80601f0160208091040260200160405190810160405280929190818152602001828054610a0190613848565b8015610a4e5780601f10610a2357610100808354040283529160200191610a4e565b820191906000526020600020905b815481529060010190602001808311610a3157829003601f168201915b5050505050815260200190600101906109b6565b5050505081525050848380610a769061387a565b945081518110610aaf577f4e487b7100000000000000000000000000000000000000000000000000000000600052603260045260246000fd5b60200260200101819052505b8080610ac69061387a565b915050610649565b50505090565b610adc612367565b60036000838152602001908152602001600020604051806101a001604052908160008201548152602001600182018054610b1590613848565b80601f0160208091040260200160405190810160405280929190818152602001828054610b4190613848565b8015610b8e5780601f10610b6357610100808354040283529160200191610b8e565b820191906000526020600020905b815481529060010190602001808311610b7157829003601f168201915b50505050508152602001600282018054610ba790613848565b80601f0160208091040260200160405190810160405280929190818152602001828054610bd390613848565b8015610c205780601f10610bf557610100808354040283529160200191610c20565b820191906000526020600020905b815481529060010190602001808311610c0357829003601f168201915b50505050508152602001600382018054610c3990613848565b80601f0160208091040260200160405190810160405280929190818152602001828054610c6590613848565b8015610cb25780601f10610c8757610100808354040283529160200191610cb2565b820191906000526020600020905b815481529060010190602001808311610c9557829003601f168201915b5050505050815260200160048201548152602001600582015481526020016006820160009054906101000a900460ff161515151581526020016006820160019054906101000a900473ffffffffffffffffffffffffffffffffffffffff1673ffffffffffffffffffffffffffffffffffffffff1673ffffffffffffffffffffffffffffffffffffffff168152602001600782015481526020016008820154815260200160098201548152602001600a8201805480602002602001604051908101604052809291908181526020018280548015610de357602002820191906000526020600020905b8160009054906101000a900473ffffffffffffffffffffffffffffffffffffffff1673ffffffffffffffffffffffffffffffffffffffff1681526020019060010190808311610d99575b50505050508152602001600b8201805480602002602001604051908101604052809291908181526020016000905b82821015610ebd578382906000526020600020018054610e3090613848565b80601f0160208091040260200160405190810160405280929190818152602001828054610e5c90613848565b8015610ea95780601f10610e7e57610100808354040283529160200191610ea9565b820191906000526020600020905b815481529060010190602001808311610e8c57829003601f168201915b505050505081526020019060010190610e11565b50505050815250509050919050565b6002600082815260200190815260200160002060009054906101000a900460ff16610f2c576040517f08c379a0000000000000000000000000000000000000000000000000000000008152600401610f23906133fd565b60405180910390fd5b3373ffffffffffffffffffffffffffffffffffffffff166003600083815260200190815260200160002060060160019054906101000a900473ffffffffffffffffffffffffffffffffffffffff1673ffffffffffffffffffffffffffffffffffffffff1614610fd0576040517f08c379a0000000000000000000000000000000000000000000000000000000008152600401610fc79061347d565b60405180910390fd5b6001600360008381526020019081526020016000206004015410611029576040517f08c379a00000000000000000000000000000000000000000000000000000000081526004016110209061345d565b60405180910390fd5b60016003600083815260200190815260200160002060060160006101000a81548160ff02191690831515021790555050565b6002600084815260200190815260200160002060009054906101000a900460ff166110bb576040517f08c379a00000000000000000000000000000000000000000000000000000000081526004016110b2906133fd565b60405180910390fd5b60008251116110ff576040517f08c379a00000000000000000000000000000000000000000000000000000000081526004016110f69061351d565b60405180910390fd5b6000815111611143576040517f08c379a000000000000000000000000000000000000000000000000000000000815260040161113a9061333d565b60405180910390fd5b600160036000858152602001908152602001600020600401541061119c576040517f08c379a00000000000000000000000000000000000000000000000000000000081526004016111939061345d565b60405180910390fd5b6005600084815260200190815260200160002060003373ffffffffffffffffffffffffffffffffffffffff1673ffffffffffffffffffffffffffffffffffffffff16815260200190815260200160002060009054906101000a900460ff161561123a576040517f08c379a00000000000000000000000000000000000000000000000000000000081526004016112319061341d565b60405180910390fd5b61124460016122ab565b61124c6123e7565b82816040018190525081816020018190525033816060019073ffffffffffffffffffffffffffffffffffffffff16908173ffffffffffffffffffffffffffffffffffffffff16815250506112a0600161229d565b81600001818152505080600660008681526020019081526020016000206000836000015181526020019081526020016000206000820151816000015560208201518160010190805190602001906112f89291906122e1565b5060408201518160020190805190602001906113159291906122e1565b5060608201518160030160006101000a81548173ffffffffffffffffffffffffffffffffffffffff021916908373ffffffffffffffffffffffffffffffffffffffff1602179055506080820151816004015560a0820151816005019080519060200190611383929190612433565b5090505060016005600086815260200190815260200160002060003373ffffffffffffffffffffffffffffffffffffffff1673ffffffffffffffffffffffffffffffffffffffff16815260200190815260200160002060006101000a81548160ff02191690831515021790555060036000858152602001908152602001600020600b018290806001815401808255809150506001900390600052602060002001600090919091909150908051906020019061143f9291906122e1565b506003600085815260200190815260200160002060050160008154809291906114679061387a565b919050555050505050565b6002600083815260200190815260200160002060009054906101000a900460ff166114d2576040517f08c379a00000000000000000000000000000000000000000000000000000000081526004016114c9906133fd565b60405180910390fd5b6004600083815260200190815260200160002060003373ffffffffffffffffffffffffffffffffffffffff1673ffffffffffffffffffffffffffffffffffffffff16815260200190815260200160002060009054906101000a900460ff1615611570576040517f08c379a00000000000000000000000000000000000000000000000000000000081526004016115679061335d565b60405180910390fd5b6003600083815260200190815260200160002060060160009054906101000a900460ff16156115d4576040517f08c379a00000000000000000000000000000000000000000000000000000000081526004016115cb9061343d565b60405180910390fd5b600160036000848152602001908152602001600020600501541161162d576040517f08c379a0000000000000000000000000000000000000000000000000000000008152600401611624906133dd565b60405180910390fd5b600360008381526020019081526020016000206007015461164c6122c1565b10158015611676575060036000838152602001908152602001600020600801546116746122c1565b105b6116b5576040517f08c379a00000000000000000000000000000000000000000000000000000000081526004016116ac9061339d565b60405180910390fd5b6003600083815260200190815260200160002060040160008154809291906116dc9061387a565b919050555060036000838152602001908152602001600020600a01339080600181540180825580915050600190039060005260206000200160009091909190916101000a81548173ffffffffffffffffffffffffffffffffffffffff021916908373ffffffffffffffffffffffffffffffffffffffff16021790555060066000838152602001908152602001600020600082815260200190815260200160002060040160008154809291906117909061387a565b9190505550600660008381526020019081526020016000206000828152602001908152602001600020600501339080600181540180825580915050600190039060005260206000200160009091909190916101000a81548173ffffffffffffffffffffffffffffffffffffffff021916908373ffffffffffffffffffffffffffffffffffffffff16021790555060016004600084815260200190815260200160002060003373ffffffffffffffffffffffffffffffffffffffff1673ffffffffffffffffffffffffffffffffffffffff16815260200190815260200160002060006101000a81548160ff0219169083151502179055503373ffffffffffffffffffffffffffffffffffffffff167f4d99b957a2bc29a30ebd96a7be8e68fe50a3c701db28a91436490b7d53870ca46118c66122c1565b6040516118d39190613581565b60405180910390a25050565b6060600080600190505b6118f3600161229d565b811161194a57806006600086815260200190815260200160002060008381526020019081526020016000206000015414156119375781806119339061387a565b9250505b80806119429061387a565b9150506118e9565b508067ffffffffffffffff81111561198b577f4e487b7100000000000000000000000000000000000000000000000000000000600052604160045260246000fd5b6040519080825280602002602001820160405280156119c457816020015b6119b16123e7565b8152602001906001900390816119a95790505b509150600080600190505b6119d9600161229d565b8111611cbd5780600660008781526020019081526020016000206000838152602001908152602001600020600001541415611caa576006600086815260200190815260200160002060008281526020019081526020016000206040518060c001604052908160008201548152602001600182018054611a5790613848565b80601f0160208091040260200160405190810160405280929190818152602001828054611a8390613848565b8015611ad05780601f10611aa557610100808354040283529160200191611ad0565b820191906000526020600020905b815481529060010190602001808311611ab357829003601f168201915b50505050508152602001600282018054611ae990613848565b80601f0160208091040260200160405190810160405280929190818152602001828054611b1590613848565b8015611b625780601f10611b3757610100808354040283529160200191611b62565b820191906000526020600020905b815481529060010190602001808311611b4557829003601f168201915b505050505081526020016003820160009054906101000a900473ffffffffffffffffffffffffffffffffffffffff1673ffffffffffffffffffffffffffffffffffffffff1673ffffffffffffffffffffffffffffffffffffffff1681526020016004820154815260200160058201805480602002602001604051908101604052809291908181526020018280548015611c5057602002820191906000526020600020905b8160009054906101000a900473ffffffffffffffffffffffffffffffffffffffff1673ffffffffffffffffffffffffffffffffffffffff1681526020019060010190808311611c06575b505050505081525050848380611c659061387a565b945081518110611c9e577f4e487b7100000000000000000000000000000000000000000000000000000000600052603260045260246000fd5b60200260200101819052505b8080611cb59061387a565b9150506119cf565b505050919050565b611ccd6123e7565b6006600084815260200190815260200160002060008381526020019081526020016000206040518060c001604052908160008201548152602001600182018054611d1690613848565b80601f0160208091040260200160405190810160405280929190818152602001828054611d4290613848565b8015611d8f5780601f10611d6457610100808354040283529160200191611d8f565b820191906000526020600020905b815481529060010190602001808311611d7257829003601f168201915b50505050508152602001600282018054611da890613848565b80601f0160208091040260200160405190810160405280929190818152602001828054611dd490613848565b8015611e215780601f10611df657610100808354040283529160200191611e21565b820191906000526020600020905b815481529060010190602001808311611e0457829003601f168201915b505050505081526020016003820160009054906101000a900473ffffffffffffffffffffffffffffffffffffffff1673ffffffffffffffffffffffffffffffffffffffff1673ffffffffffffffffffffffffffffffffffffffff1681526020016004820154815260200160058201805480602002602001604051908101604052809291908181526020018280548015611f0f57602002820191906000526020600020905b8160009054906101000a900473ffffffffffffffffffffffffffffffffffffffff1673ffffffffffffffffffffffffffffffffffffffff1681526020019060010190808311611ec5575b505050505081525050905092915050565b6000845111611f64576040517f08c379a0000000000000000000000000000000000000000000000000000000008152600401611f5b906133bd565b60405180910390fd5b6000835111611fa8576040517f08c379a0000000000000000000000000000000000000000000000000000000008152600401611f9f9061337d565b60405180910390fd5b6000855111611fec576040517f08c379a0000000000000000000000000000000000000000000000000000000008152600401611fe39061349d565b60405180910390fd5b6000821161202f576040517f08c379a0000000000000000000000000000000000000000000000000000000008152600401612026906134fd565b60405180910390fd5b818111612071576040517f08c379a0000000000000000000000000000000000000000000000000000000008152600401612068906134dd565b60405180910390fd5b61207b60006122ab565b612083612367565b61208d600061229d565b81600001818152505084816040018190525083816060018190525085816020018190525082816101000181815250508181610120018181525050338160e0019073ffffffffffffffffffffffffffffffffffffffff16908173ffffffffffffffffffffffffffffffffffffffff16815250506121076122c1565b8161014001818152505080600360008360000151815260200190815260200160002060008201518160000155602082015181600101908051906020019061214f9291906122e1565b50604082015181600201908051906020019061216c9291906122e1565b5060608201518160030190805190602001906121899291906122e1565b506080820151816004015560a0820151816005015560c08201518160060160006101000a81548160ff02191690831515021790555060e08201518160060160016101000a81548173ffffffffffffffffffffffffffffffffffffffff021916908373ffffffffffffffffffffffffffffffffffffffff16021790555061010082015181600701556101208201518160080155610140820151816009015561016082015181600a019080519060200190612243929190612433565b5061018082015181600b0190805190602001906122619291906124bd565b509050506001600260008360000151815260200190815260200160002060006101000a81548160ff021916908315150217905550505050505050565b600081600001549050919050565b6001816000016000828254019250508190555050565b60006103e880426122d29190613764565b6122dc919061370e565b905090565b8280546122ed90613848565b90600052602060002090601f01602090048101928261230f5760008555612356565b82601f1061232857805160ff1916838001178555612356565b82800160010185558215612356579182015b8281111561235557825182559160200191906001019061233a565b5b509050612363919061251d565b5090565b604051806101a00160405280600081526020016060815260200160608152602001606081526020016000815260200160008152602001600015158152602001600073ffffffffffffffffffffffffffffffffffffffff16815260200160008152602001600081526020016000815260200160608152602001606081525090565b6040518060c00160405280600081526020016060815260200160608152602001600073ffffffffffffffffffffffffffffffffffffffff16815260200160008152602001606081525090565b8280548282559060005260206000209081019282156124ac579160200282015b828111156124ab5782518260006101000a81548173ffffffffffffffffffffffffffffffffffffffff021916908373ffffffffffffffffffffffffffffffffffffffff16021790555091602001919060010190612453565b5b5090506124b9919061251d565b5090565b82805482825590600052602060002090810192821561250c579160200282015b8281111561250b5782518290805190602001906124fb9291906122e1565b50916020019190600101906124dd565b5b509050612519919061253a565b5090565b5b8082111561253657600081600090555060010161251e565b5090565b5b8082111561255a5760008181612551919061255e565b5060010161253b565b5090565b50805461256a90613848565b6000825580601f1061257c575061259b565b601f01602090049060005260206000209081019061259a919061251d565b5b50565b60006125b16125ac846135cd565b61359c565b9050828152602081018484840111156125c957600080fd5b6125d4848285613806565b509392505050565b600082601f8301126125ed57600080fd5b81356125fd84826020860161259e565b91505092915050565b60008135905061261581613961565b92915050565b600080600080600060a0868803121561263357600080fd5b600086013567ffffffffffffffff81111561264d57600080fd5b612659888289016125dc565b955050602086013567ffffffffffffffff81111561267657600080fd5b612682888289016125dc565b945050604086013567ffffffffffffffff81111561269f57600080fd5b6126ab888289016125dc565b93505060606126bc88828901612606565b92505060806126cd88828901612606565b9150509295509295909350565b6000602082840312156126ec57600080fd5b60006126fa84828501612606565b91505092915050565b60008060006060848603121561271857600080fd5b600061272686828701612606565b935050602084013567ffffffffffffffff81111561274357600080fd5b61274f868287016125dc565b925050604084013567ffffffffffffffff81111561276c57600080fd5b612778868287016125dc565b9150509250925092565b60008060008060008060c0878903121561279b57600080fd5b60006127a989828a01612606565b965050602087013567ffffffffffffffff8111156127c657600080fd5b6127d289828a016125dc565b955050604087013567ffffffffffffffff8111156127ef57600080fd5b6127fb89828a016125dc565b945050606087013567ffffffffffffffff81111561281857600080fd5b61282489828a016125dc565b935050608061283589828a01612606565b92505060a061284689828a01612606565b9150509295509295509295565b6000806040838503121561286657600080fd5b600061287485828601612606565b925050602061288585828601612606565b9150509250929050565b600061289b83836128e3565b60208301905092915050565b60006128b38383612abe565b905092915050565b60006128c78383612f43565b905092915050565b60006128db8383613071565b905092915050565b6128ec816137be565b82525050565b60006128fd8261363d565b61290781856136a8565b9350612912836135fd565b8060005b8381101561294357815161292a888261288f565b975061293583613674565b925050600181019050612916565b5085935050505092915050565b600061295b82613648565b61296581856136b9565b9350836020820285016129778561360d565b8060005b858110156129b3578484038952815161299485826128a7565b945061299f83613681565b925060208a0199505060018101905061297b565b50829750879550505050505092915050565b60006129d082613653565b6129da81856136ca565b9350836020820285016129ec8561361d565b8060005b85811015612a285784840389528151612a0985826128bb565b9450612a148361368e565b925060208a019950506001810190506129f0565b50829750879550505050505092915050565b6000612a458261365e565b612a4f81856136db565b935083602082028501612a618561362d565b8060005b85811015612a9d5784840389528151612a7e85826128cf565b9450612a898361369b565b925060208a01995050600181019050612a65565b50829750879550505050505092915050565b612ab8816137d0565b82525050565b6000612ac982613669565b612ad381856136ec565b9350612ae3818560208601613815565b612aec81613950565b840191505092915050565b6000612b046015836136fd565b91507f696d6167652063616e6e6f7420626520656d70747900000000000000000000006000830152602082019050919050565b6000612b44600d836136fd565b91507f416c726561647920766f746564000000000000000000000000000000000000006000830152602082019050919050565b6000612b84601b836136fd565b91507f4465736372697074696f6e2063616e6e6f7420626520656d70747900000000006000830152602082019050919050565b6000612bc46019836136fd565b91507f566f74696e67206d75737420626520696e2073657373696f6e000000000000006000830152602082019050919050565b6000612c046015836136fd565b91507f5469746c652063616e6e6f7420626520656d70747900000000000000000000006000830152602082019050919050565b6000612c446016836136fd565b91507f4e6f7420656e6f75676820636f6e74657374616e7473000000000000000000006000830152602082019050919050565b6000612c84600e836136fd565b91507f506f6c6c206e6f7420666f756e640000000000000000000000000000000000006000830152602082019050919050565b6000612cc46011836136fd565b91507f416c726561647920636f6e7465737465640000000000000000000000000000006000830152602082019050919050565b6000612d046015836136fd565b91507f506f6c6c696e67206e6f7420617661696c61626c6500000000000000000000006000830152602082019050919050565b6000612d446016836136fd565b91507f506f6c6c2068617320766f74657320616c7265616479000000000000000000006000830152602082019050919050565b6000612d846013836136fd565b91507f556e617574686f72697a656420656e74697479000000000000000000000000006000830152602082019050919050565b6000612dc46019836136fd565b91507f496d6167652055524c2063616e6e6f7420626520656d707479000000000000006000830152602082019050919050565b6000612e046017836136fd565b91507f506f6c6c696e6720616c72656164792064656c657465640000000000000000006000830152602082019050919050565b6000612e446028836136fd565b91507f456e642064617465206d7573742062652067726561746572207468616e20737460008301527f61727420646174650000000000000000000000000000000000000000000000006020830152604082019050919050565b6000612eaa6021836136fd565b91507f53746172742064617465206d7573742062652067726561746572207468616e2060008301527f30000000000000000000000000000000000000000000000000000000000000006020830152604082019050919050565b6000612f106014836136fd565b91507f6e616d652063616e6e6f7420626520656d7074790000000000000000000000006000830152602082019050919050565b600060c083016000830151612f5b60008601826132db565b5060208301518482036020860152612f738282612abe565b91505060408301518482036040860152612f8d8282612abe565b9150506060830151612fa260608601826128e3565b506080830151612fb560808601826132db565b5060a083015184820360a0860152612fcd82826128f2565b9150508091505092915050565b600060c083016000830151612ff260008601826132db565b506020830151848203602086015261300a8282612abe565b915050604083015184820360408601526130248282612abe565b915050606083015161303960608601826128e3565b50608083015161304c60808601826132db565b5060a083015184820360a086015261306482826128f2565b9150508091505092915050565b60006101a08301600083015161308a60008601826132db565b50602083015184820360208601526130a28282612abe565b915050604083015184820360408601526130bc8282612abe565b915050606083015184820360608601526130d68282612abe565b91505060808301516130eb60808601826132db565b5060a08301516130fe60a08601826132db565b5060c083015161311160c0860182612aaf565b5060e083015161312460e08601826128e3565b506101008301516131396101008601826132db565b5061012083015161314e6101208601826132db565b506101408301516131636101408601826132db565b5061016083015184820361016086015261317d82826128f2565b9150506101808301518482036101808601526131998282612950565b9150508091505092915050565b60006101a0830160008301516131bf60008601826132db565b50602083015184820360208601526131d78282612abe565b915050604083015184820360408601526131f18282612abe565b9150506060830151848203606086015261320b8282612abe565b915050608083015161322060808601826132db565b5060a083015161323360a08601826132db565b5060c083015161324660c0860182612aaf565b5060e083015161325960e08601826128e3565b5061010083015161326e6101008601826132db565b506101208301516132836101208601826132db565b506101408301516132986101408601826132db565b506101608301518482036101608601526132b282826128f2565b9150506101808301518482036101808601526132ce8282612950565b9150508091505092915050565b6132e4816137fc565b82525050565b6132f3816137fc565b82525050565b6000602082019050818103600083015261331381846129c5565b905092915050565b600060208201905081810360008301526133358184612a3a565b905092915050565b6000602082019050818103600083015261335681612af7565b9050919050565b6000602082019050818103600083015261337681612b37565b9050919050565b6000602082019050818103600083015261339681612b77565b9050919050565b600060208201905081810360008301526133b681612bb7565b9050919050565b600060208201905081810360008301526133d681612bf7565b9050919050565b600060208201905081810360008301526133f681612c37565b9050919050565b6000602082019050818103600083015261341681612c77565b9050919050565b6000602082019050818103600083015261343681612cb7565b9050919050565b6000602082019050818103600083015261345681612cf7565b9050919050565b6000602082019050818103600083015261347681612d37565b9050919050565b6000602082019050818103600083015261349681612d77565b9050919050565b600060208201905081810360008301526134b681612db7565b9050919050565b600060208201905081810360008301526134d681612df7565b9050919050565b600060208201905081810360008301526134f681612e37565b9050919050565b6000602082019050818103600083015261351681612e9d565b9050919050565b6000602082019050818103600083015261353681612f03565b9050919050565b600060208201905081810360008301526135578184612fda565b905092915050565b6000602082019050818103600083015261357981846131a6565b905092915050565b600060208201905061359660008301846132ea565b92915050565b6000604051905081810181811067ffffffffffffffff821117156135c3576135c2613921565b5b8060405250919050565b600067ffffffffffffffff8211156135e8576135e7613921565b5b601f19601f8301169050602081019050919050565b6000819050602082019050919050565b6000819050602082019050919050565b6000819050602082019050919050565b6000819050602082019050919050565b600081519050919050565b600081519050919050565b600081519050919050565b600081519050919050565b600081519050919050565b6000602082019050919050565b6000602082019050919050565b6000602082019050919050565b6000602082019050919050565b600082825260208201905092915050565b600082825260208201905092915050565b600082825260208201905092915050565b600082825260208201905092915050565b600082825260208201905092915050565b600082825260208201905092915050565b6000613719826137fc565b9150613724836137fc565b9250827fffffffffffffffffffffffffffffffffffffffffffffffffffffffffffffffff03821115613759576137586138c3565b5b828201905092915050565b600061376f826137fc565b915061377a836137fc565b9250817fffffffffffffffffffffffffffffffffffffffffffffffffffffffffffffffff04831182151516156137b3576137b26138c3565b5b828202905092915050565b60006137c9826137dc565b9050919050565b60008115159050919050565b600073ffffffffffffffffffffffffffffffffffffffff82169050919050565b6000819050919050565b82818337600083830152505050565b60005b83811015613833578082015181840152602081019050613818565b83811115613842576000848401525b50505050565b6000600282049050600182168061386057607f821691505b60208210811415613874576138736138f2565b5b50919050565b6000613885826137fc565b91507fffffffffffffffffffffffffffffffffffffffffffffffffffffffffffffffff8214156138b8576138b76138c3565b5b600182019050919050565b7f4e487b7100000000000000000000000000000000000000000000000000000000600052601160045260246000fd5b7f4e487b7100000000000000000000000000000000000000000000000000000000600052602260045260246000fd5b7f4e487b7100000000000000000000000000000000000000000000000000000000600052604160045260246000fd5b6000601f19601f8301169050919050565b61396a816137fc565b811461397557600080fd5b5056fea2646970667358221220c5a8ee051a94732e628470aefe63616c236e149112afbf90b1e18583ea15b48264736f6c63430008000033",
  "immutableReferences": {},
  "source": "\n//SPDX-License-Identifier: MIT\npragma solidity >=0.7.0 <0.9.0;\nimport '@openzeppelin/contracts/utils/Counters.sol';\n\ncontract DappVotes {\n  using Counters for Counters.Counter;\n  Counters.Counter private totalPolls;\n  Counters.Counter private totalContestants;\n\n  struct PollStruct {\n    uint id;\n    string image;\n    string title;\n    string description;\n    uint votes;\n    uint contestants;\n    bool deleted;\n    address director;\n    uint startsAt;\n    uint endsAt;\n    uint timestamp;\n    address[] voters;\n    string[] avatars;\n  }\n\n  struct ContestantStruct {\n    uint id;\n    string image;\n    string name;\n    address voter;\n    uint votes;\n    address[] voters;\n  }\n\n  mapping(uint => bool) pollExist;\n  mapping(uint => PollStruct) polls;\n  mapping(uint => mapping(address => bool)) voted;\n  mapping(uint => mapping(address => bool)) contested;\n  mapping(uint => mapping(uint => ContestantStruct)) contestants;\n\n  event Voted(address indexed voter, uint timestamp);\n\n  function createPoll(\n    string memory image,\n    string memory title,\n    string memory description,\n    uint startsAt,\n    uint endsAt\n  ) public {\n    require(bytes(title).length > 0, 'Title cannot be empty');\n    require(bytes(description).length > 0, 'Description cannot be empty');\n    require(bytes(image).length > 0, 'Image URL cannot be empty');\n    require(startsAt > 0, 'Start date must be greater than 0');\n    require(endsAt > startsAt, 'End date must be greater than start date');\n\n    totalPolls.increment();\n\n    PollStruct memory poll;\n    poll.id = totalPolls.current();\n    poll.title = title;\n    poll.description = description;\n    poll.image = image;\n    poll.startsAt = startsAt;\n    poll.endsAt = endsAt;\n    poll.director = msg.sender;\n    poll.timestamp = currentTime();\n\n    polls[poll.id] = poll;\n    pollExist[poll.id] = true;\n  }\n\n  function updatePoll(\n    uint id,\n    string memory image,\n    string memory title,\n    string memory description,\n    uint startsAt,\n    uint endsAt\n  ) public {\n    require(pollExist[id], 'Poll not found');\n    require(polls[id].director == msg.sender, 'Unauthorized entity');\n    require(bytes(title).length > 0, 'Title cannot be empty');\n    require(bytes(description).length > 0, 'Description cannot be empty');\n    require(bytes(image).length > 0, 'Image URL cannot be empty');\n    require(!polls[id].deleted, 'Polling already deleted');\n    require(polls[id].votes < 1, 'Poll has votes already');\n    require(endsAt > startsAt, 'End date must be greater than start date');\n\n    polls[id].title = title;\n    polls[id].description = description;\n    polls[id].startsAt = startsAt;\n    polls[id].endsAt = endsAt;\n    polls[id].image = image;\n  }\n\n  function deletePoll(uint id) public {\n    require(pollExist[id], 'Poll not found');\n    require(polls[id].director == msg.sender, 'Unauthorized entity');\n    require(polls[id].votes < 1, 'Poll has votes already');\n    polls[id].deleted = true;\n  }\n\n  function getPoll(uint id) public view returns (PollStruct memory) {\n    return polls[id];\n  }\n\n  function getPolls() public view returns (PollStruct[] memory Polls) {\n    uint available;\n    for (uint i = 1; i <= totalPolls.current(); i++) {\n        if(!polls[i].deleted) available++;\n    }\n\n    Polls = new PollStruct[](available);\n    uint index;\n\n    for (uint i = 1; i <= totalPolls.current(); i++) {\n        if(!polls[i].deleted) {\n            Polls[index++] = polls[i];\n        }\n    }\n  }\n\n  function contest(uint id, string memory name, string memory image) public {\n    require(pollExist[id], 'Poll not found');\n    require(bytes(name).length > 0, 'name cannot be empty');\n    require(bytes(image).length > 0, 'image cannot be empty');\n    require(polls[id].votes < 1, 'Poll has votes already');\n    require(!contested[id][msg.sender], 'Already contested');\n\n    totalContestants.increment();\n\n    ContestantStruct memory contestant;\n    contestant.name = name;\n    contestant.image = image;\n    contestant.voter = msg.sender;\n    contestant.id = totalContestants.current();\n\n    contestants[id][contestant.id] = contestant;\n    contested[id][msg.sender] = true;\n    polls[id].avatars.push(image);\n    polls[id].contestants++;\n  }\n\n  function getContestant(uint id, uint cid) public view returns (ContestantStruct memory) {\n    return contestants[id][cid];\n  }\n\n  function getContestants(uint id) public view returns (ContestantStruct[] memory Contestants) {\n    uint available;\n    for (uint i = 1; i <= totalContestants.current(); i++) {\n        if(contestants[id][i].id == i) available++;\n    }\n\n    Contestants = new ContestantStruct[](available);\n    uint index;\n\n    for (uint i = 1; i <= totalContestants.current(); i++) {\n        if(contestants[id][i].id == i) {\n            Contestants[index++] = contestants[id][i];\n        }\n    }\n  }\n\n  function vote(uint id, uint cid) public {\n    require(pollExist[id], 'Poll not found');\n    require(!voted[id][msg.sender], 'Already voted');\n    require(!polls[id].deleted, 'Polling not available');\n    require(polls[id].contestants > 1, 'Not enough contestants');\n    require(\n      currentTime() >= polls[id].startsAt && currentTime() < polls[id].endsAt,\n      'Voting must be in session'\n    );\n\n    polls[id].votes++;\n    polls[id].voters.push(msg.sender);\n\n    contestants[id][cid].votes++;\n    contestants[id][cid].voters.push(msg.sender);\n    voted[id][msg.sender] = true;\n\n    emit Voted(msg.sender, currentTime());\n  }\n\n  function currentTime() internal view returns (uint256) {\n    return (block.timestamp * 1000) + 1000;\n  }\n}",
  "sourcePath": "/Users/jaskiratsingh/Desktop/Personal Projects/Voting dApp/contracts/voting.sol",
  "compiler": {
    "name": "solc",
    "version": "0.8.0+commit.c7dfd78e.Emscripten.clang"
  },
  "schemaVersion": "3.4.16",
  "updatedAt": "2023-10-24T15:15:34.979Z",
  "networkType": "ethereum",
  "devdoc": {
    "kind": "dev",
    "methods": {},
    "version": 1
  },
  "userdoc": {
    "kind": "user",
    "methods": {},
    "version": 1
  }
}